{
  "_format": "hh-sol-artifact-1",
  "contractName": "SupplyChainContract",
  "sourceName": "contracts/SupplyChainContract.sol",
  "abi": [
    {
      "inputs": [],
      "stateMutability": "nonpayable",
      "type": "constructor"
    },
    {
      "inputs": [
        {
          "internalType": "address",
          "name": "",
          "type": "address"
        }
      ],
      "name": "actors",
      "outputs": [
        {
          "internalType": "string",
          "name": "actorName",
          "type": "string"
        },
        {
          "internalType": "string",
          "name": "priamryProducer",
          "type": "string"
        }
      ],
      "stateMutability": "view",
      "type": "function"
    },
    {
      "inputs": [
        {
          "internalType": "uint256",
          "name": "",
          "type": "uint256"
        }
      ],
      "name": "actorsData",
      "outputs": [
        {
          "internalType": "string",
          "name": "actorName",
          "type": "string"
        },
        {
          "internalType": "string",
          "name": "priamryProducer",
          "type": "string"
        }
      ],
      "stateMutability": "view",
      "type": "function"
    },
    {
      "inputs": [
        {
          "internalType": "string",
          "name": "stage",
          "type": "string"
        },
        {
          "internalType": "string",
          "name": "details",
          "type": "string"
        },
        {
          "internalType": "uint256",
          "name": "quantity",
          "type": "uint256"
        },
        {
          "internalType": "string",
          "name": "location",
          "type": "string"
        },
        {
          "internalType": "uint256",
          "name": "timestamp",
          "type": "uint256"
        },
        {
          "internalType": "address",
          "name": "source",
          "type": "address"
        },
        {
          "internalType": "uint256",
          "name": "chainId",
          "type": "uint256"
        }
      ],
      "name": "addLot",
      "outputs": [],
      "stateMutability": "nonpayable",
      "type": "function"
    },
    {
      "inputs": [
        {
          "internalType": "uint256",
          "name": "",
          "type": "uint256"
        }
      ],
      "name": "availableAddresses",
      "outputs": [
        {
          "internalType": "address",
          "name": "",
          "type": "address"
        }
      ],
      "stateMutability": "view",
      "type": "function"
    },
    {
      "inputs": [],
      "name": "currentProposal",
      "outputs": [
        {
          "internalType": "string",
          "name": "name",
          "type": "string"
        },
        {
          "internalType": "address",
          "name": "proposedAddress",
          "type": "address"
        },
        {
          "internalType": "uint256",
          "name": "voteCount",
          "type": "uint256"
        },
        {
          "internalType": "uint256",
          "name": "totalVoteCount",
          "type": "uint256"
        },
        {
          "internalType": "string",
          "name": "primaryProduer",
          "type": "string"
        },
        {
          "internalType": "bool",
          "name": "isActive",
          "type": "bool"
        }
      ],
      "stateMutability": "view",
      "type": "function"
    },
    {
      "inputs": [],
      "name": "getAllLotsCount",
      "outputs": [
        {
          "internalType": "uint256",
          "name": "",
          "type": "uint256"
        }
      ],
      "stateMutability": "view",
      "type": "function"
    },
    {
      "inputs": [],
      "name": "getAvailableAddresses",
      "outputs": [
        {
          "internalType": "address[]",
          "name": "",
          "type": "address[]"
        }
      ],
      "stateMutability": "view",
      "type": "function"
    },
    {
      "inputs": [],
      "name": "getAvailableAddressesCount",
      "outputs": [
        {
          "internalType": "uint256",
          "name": "",
          "type": "uint256"
        }
      ],
      "stateMutability": "view",
      "type": "function"
    },
    {
      "inputs": [
        {
          "internalType": "address",
          "name": "_address",
          "type": "address"
        }
      ],
      "name": "getIfAdressIsMember",
      "outputs": [
        {
          "internalType": "bool",
          "name": "",
          "type": "bool"
        }
      ],
      "stateMutability": "view",
      "type": "function"
    },
    {
      "inputs": [],
      "name": "getIfSenderIsMember",
      "outputs": [
        {
          "internalType": "bool",
          "name": "",
          "type": "bool"
        }
      ],
      "stateMutability": "view",
      "type": "function"
    },
    {
      "inputs": [],
      "name": "getNumberOfPreviousProposal",
      "outputs": [
        {
          "internalType": "uint256",
          "name": "",
          "type": "uint256"
        }
      ],
      "stateMutability": "view",
      "type": "function"
    },
    {
      "inputs": [
        {
          "internalType": "uint256",
          "name": "index",
          "type": "uint256"
        }
      ],
      "name": "getPreviousProposalDetails",
      "outputs": [
        {
          "internalType": "string",
          "name": "name",
          "type": "string"
        },
        {
          "internalType": "address",
          "name": "proposedAddress",
          "type": "address"
        },
        {
          "internalType": "uint256",
          "name": "voteCounts",
          "type": "uint256"
        },
        {
          "internalType": "uint256",
          "name": "totalVoteCount",
          "type": "uint256"
        },
        {
          "internalType": "bool",
          "name": "isActive",
          "type": "bool"
        }
      ],
      "stateMutability": "view",
      "type": "function"
    },
    {
      "inputs": [],
      "name": "getProposalDetails",
      "outputs": [
        {
          "internalType": "string",
          "name": "name",
          "type": "string"
        },
        {
          "internalType": "address",
          "name": "proposedAddress",
          "type": "address"
        },
        {
          "internalType": "uint256",
          "name": "voteCounts",
          "type": "uint256"
        },
        {
          "internalType": "uint256",
          "name": "totalVoteCount",
          "type": "uint256"
        },
        {
          "internalType": "bool",
          "name": "isActive",
          "type": "bool"
        }
      ],
      "stateMutability": "view",
      "type": "function"
    },
    {
      "inputs": [],
      "name": "getRandomNumber",
      "outputs": [
        {
          "internalType": "uint256",
          "name": "",
          "type": "uint256"
        }
      ],
      "stateMutability": "nonpayable",
      "type": "function"
    },
    {
      "inputs": [
        {
          "internalType": "uint256",
          "name": "index",
          "type": "uint256"
        }
      ],
      "name": "getSingleLot",
      "outputs": [
        {
          "internalType": "string",
          "name": "",
          "type": "string"
        },
        {
          "internalType": "string",
          "name": "",
          "type": "string"
        },
        {
          "internalType": "uint256",
          "name": "",
          "type": "uint256"
        },
        {
          "internalType": "string",
          "name": "",
          "type": "string"
        },
        {
          "internalType": "uint256",
          "name": "",
          "type": "uint256"
        },
        {
          "internalType": "address",
          "name": "",
          "type": "address"
        },
        {
          "internalType": "address",
          "name": "",
          "type": "address"
        }
      ],
      "stateMutability": "view",
      "type": "function"
    },
    {
      "inputs": [
        {
          "internalType": "address",
          "name": "",
          "type": "address"
        }
      ],
      "name": "hasVoted",
      "outputs": [
        {
          "internalType": "bool",
          "name": "",
          "type": "bool"
        }
      ],
      "stateMutability": "view",
      "type": "function"
    },
    {
      "inputs": [
        {
          "internalType": "address",
          "name": "",
          "type": "address"
        }
      ],
      "name": "isAvailable",
      "outputs": [
        {
          "internalType": "bool",
          "name": "",
          "type": "bool"
        }
      ],
      "stateMutability": "view",
      "type": "function"
    },
    {
      "inputs": [
        {
          "internalType": "uint256",
          "name": "",
          "type": "uint256"
        }
      ],
      "name": "lots",
      "outputs": [
        {
          "internalType": "string",
          "name": "stage",
          "type": "string"
        },
        {
          "internalType": "string",
          "name": "details",
          "type": "string"
        },
        {
          "internalType": "uint256",
          "name": "quantity",
          "type": "uint256"
        },
        {
          "internalType": "string",
          "name": "location",
          "type": "string"
        },
        {
          "internalType": "uint256",
          "name": "timestamp",
          "type": "uint256"
        },
        {
          "internalType": "address",
          "name": "source",
          "type": "address"
        },
        {
          "internalType": "uint256",
          "name": "chainId",
          "type": "uint256"
        },
        {
          "internalType": "address",
          "name": "creator",
          "type": "address"
        }
      ],
      "stateMutability": "view",
      "type": "function"
    },
    {
      "inputs": [],
      "name": "owner",
      "outputs": [
        {
          "internalType": "address",
          "name": "",
          "type": "address"
        }
      ],
      "stateMutability": "view",
      "type": "function"
    },
    {
      "inputs": [
        {
          "internalType": "uint256",
          "name": "",
          "type": "uint256"
        }
      ],
      "name": "previousProposals",
      "outputs": [
        {
          "internalType": "string",
          "name": "name",
          "type": "string"
        },
        {
          "internalType": "address",
          "name": "proposedAddress",
          "type": "address"
        },
        {
          "internalType": "uint256",
          "name": "voteCount",
          "type": "uint256"
        },
        {
          "internalType": "uint256",
          "name": "totalVoteCount",
          "type": "uint256"
        },
        {
          "internalType": "string",
          "name": "primaryProduer",
          "type": "string"
        },
        {
          "internalType": "bool",
          "name": "isActive",
          "type": "bool"
        }
      ],
      "stateMutability": "view",
      "type": "function"
    },
    {
      "inputs": [
        {
          "internalType": "address",
          "name": "_address",
          "type": "address"
        },
        {
          "internalType": "string",
          "name": "name",
          "type": "string"
        },
        {
          "internalType": "string",
          "name": "isPrimary",
          "type": "string"
        }
      ],
      "name": "proposeAddress",
      "outputs": [],
      "stateMutability": "nonpayable",
      "type": "function"
    },
    {
      "inputs": [],
      "name": "totalAddresses",
      "outputs": [
        {
          "internalType": "uint256",
          "name": "",
          "type": "uint256"
        }
      ],
      "stateMutability": "view",
      "type": "function"
    },
    {
      "inputs": [
        {
          "internalType": "bool",
          "name": "voteResult",
          "type": "bool"
        }
      ],
      "name": "vote",
      "outputs": [],
      "stateMutability": "nonpayable",
      "type": "function"
    },
    {
      "inputs": [
        {
          "internalType": "address",
          "name": "",
          "type": "address"
        }
      ],
      "name": "voteCount",
      "outputs": [
        {
          "internalType": "uint256",
          "name": "",
          "type": "uint256"
        }
      ],
      "stateMutability": "view",
      "type": "function"
    },
    {
      "inputs": [],
      "name": "voteThreshold",
      "outputs": [
        {
          "internalType": "uint256",
          "name": "",
          "type": "uint256"
        }
      ],
      "stateMutability": "view",
      "type": "function"
    },
    {
      "inputs": [],
      "name": "votedInCurrentProposal",
      "outputs": [
        {
          "internalType": "bool",
          "name": "",
          "type": "bool"
        }
      ],
      "stateMutability": "view",
      "type": "function"
    },
    {
      "inputs": [
        {
          "internalType": "uint256",
          "name": "",
          "type": "uint256"
        }
      ],
      "name": "votersAddress",
      "outputs": [
        {
          "internalType": "address",
          "name": "",
          "type": "address"
        }
      ],
      "stateMutability": "view",
      "type": "function"
    }
  ],
  "bytecode": "0x608060405260466008556000600a553480156200001b57600080fd5b50336000806101000a81548173ffffffffffffffffffffffffffffffffffffffff021916908373ffffffffffffffffffffffffffffffffffffffff1602179055506200008d60008054906101000a900473ffffffffffffffffffffffffffffffffffffffff166200009360201b60201c565b62000304565b600260008273ffffffffffffffffffffffffffffffffffffffff1673ffffffffffffffffffffffffffffffffffffffff16815260200190815260200160002060009054906101000a900460ff161562000123576040517f08c379a00000000000000000000000000000000000000000000000000000000081526004016200011a906200025c565b60405180910390fd5b6001819080600181540180825580915050600190039060005260206000200160009091909190916101000a81548173ffffffffffffffffffffffffffffffffffffffff021916908373ffffffffffffffffffffffffffffffffffffffff1602179055506001600260008373ffffffffffffffffffffffffffffffffffffffff1673ffffffffffffffffffffffffffffffffffffffff16815260200190815260200160002060006101000a81548160ff02191690831515021790555060076000815480929190620001f390620002b7565b919050555050565b600082825260208201905092915050565b7f4164647265737320697320616c726561647920617661696c61626c6500000000600082015250565b600062000244601c83620001fb565b915062000251826200020c565b602082019050919050565b60006020820190508181036000830152620002778162000235565b9050919050565b7f4e487b7100000000000000000000000000000000000000000000000000000000600052601160045260246000fd5b6000819050919050565b6000620002c482620002ad565b91507fffffffffffffffffffffffffffffffffffffffffffffffffffffffffffffffff8203620002f957620002f86200027e565b5b600182019050919050565b6138d680620003146000396000f3fe608060405234801561001057600080fd5b50600436106101a95760003560e01c80635e3cd7bc116100f9578063c64c895011610097578063dbdff2c111610071578063dbdff2c114610515578063eaa66a3c14610533578063f1648e8414610564578063fe3a6b9a1461059b576101a9565b8063c64c8950146104a4578063c8f0c485146104c2578063cfad5277146104f7576101a9565b80638cb609b7116100d35780638cb609b7146104065780638da5cb5b14610436578063aa2b834414610454578063abdde44314610470576101a9565b80635e3cd7bc146103825780635f3e6e28146103b2578063674cbbed146103d0576101a9565b80633dfcc29d1161016657806343242daa1161014057806343242daa146102fa57806349bb5b5e1461032a5780634b9f5c98146103485780634fe437d514610364576101a9565b80633dfcc29d146102a257806340116ea3146102be578063421e83bc146102dc576101a9565b806309eef43e146101ae578063108cb089146101de5780631af6159f14610200578063209e63141461021e5780632896f60b1461024f5780632b49d4251461027f575b600080fd5b6101c860048036038101906101c391906127fb565b6105cb565b6040516101d59190612843565b60405180910390f35b6101e66105eb565b6040516101f7959493929190612916565b60405180910390f35b6102086106da565b6040516102159190612843565b60405180910390f35b6102386004803603810190610233919061299c565b610780565b6040516102469291906129c9565b60405180910390f35b610269600480360381019061026491906127fb565b6108c4565b6040516102769190612843565b60405180910390f35b6102876108e4565b60405161029996959493929190612a00565b60405180910390f35b6102bc60048036038101906102b79190612ba4565b610a4b565b005b6102c6610bcd565b6040516102d39190612c2f565b60405180910390f35b6102e4610bda565b6040516102f19190612c2f565b60405180910390f35b610314600480360381019061030f919061299c565b610be7565b6040516103219190612c4a565b60405180910390f35b610332610c26565b60405161033f9190612c2f565b60405180910390f35b610362600480360381019061035d9190612c91565b610c33565b005b61036c611803565b6040516103799190612c2f565b60405180910390f35b61039c600480360381019061039791906127fb565b611809565b6040516103a99190612c2f565b60405180910390f35b6103ba611821565b6040516103c79190612843565b60405180910390f35b6103ea60048036038101906103e5919061299c565b61188c565b6040516103fd9796959493929190612cbe565b60405180910390f35b610420600480360381019061041b91906127fb565b611b9c565b60405161042d9190612843565b60405180910390f35b61043e611c44565b60405161044b9190612c4a565b60405180910390f35b61046e60048036038101906104699190612d42565b611c68565b005b61048a6004803603810190610485919061299c565b611e3a565b60405161049b959493929190612916565b60405180910390f35b6104ac611fcb565b6040516104b99190612ef6565b60405180910390f35b6104dc60048036038101906104d7919061299c565b612059565b6040516104ee96959493929190612a00565b60405180910390f35b6104ff6121e2565b60405161050c9190612c2f565b60405180910390f35b61051d6121e8565b60405161052a9190612c2f565b60405180910390f35b61054d600480360381019061054891906127fb565b612245565b60405161055b9291906129c9565b60405180910390f35b61057e6004803603810190610579919061299c565b612379565b604051610592989796959493929190612f18565b60405180910390f35b6105b560048036038101906105b0919061299c565b6125a9565b6040516105c29190612c4a565b60405180910390f35b60036020528060005260406000206000915054906101000a900460ff1681565b6060600080600080600e600001600e60010160009054906101000a900473ffffffffffffffffffffffffffffffffffffffff16600e60020154600e60030154600e60050160009054906101000a900460ff1684805461064990612fda565b80601f016020809104026020016040519081016040528092919081815260200182805461067590612fda565b80156106c25780601f10610697576101008083540402835291602001916106c2565b820191906000526020600020905b8154815290600101906020018083116106a557829003601f168201915b50505050509450945094509450945094509091929394565b600080600090505b600180549050811015610777573373ffffffffffffffffffffffffffffffffffffffff166001828154811061071a5761071961300b565b5b9060005260206000200160009054906101000a900473ffffffffffffffffffffffffffffffffffffffff1673ffffffffffffffffffffffffffffffffffffffff160361076a57600191505061077d565b80806001019150506106e2565b50600090505b90565b600b818154811061079057600080fd5b90600052602060002090600202016000915090508060000180546107b390612fda565b80601f01602080910402602001604051908101604052809291908181526020018280546107df90612fda565b801561082c5780601f106108015761010080835404028352916020019161082c565b820191906000526020600020905b81548152906001019060200180831161080f57829003601f168201915b50505050509080600101805461084190612fda565b80601f016020809104026020016040519081016040528092919081815260200182805461086d90612fda565b80156108ba5780601f1061088f576101008083540402835291602001916108ba565b820191906000526020600020905b81548152906001019060200180831161089d57829003601f168201915b5050505050905082565b60026020528060005260406000206000915054906101000a900460ff1681565b600e8060000180546108f590612fda565b80601f016020809104026020016040519081016040528092919081815260200182805461092190612fda565b801561096e5780601f106109435761010080835404028352916020019161096e565b820191906000526020600020905b81548152906001019060200180831161095157829003601f168201915b5050505050908060010160009054906101000a900473ffffffffffffffffffffffffffffffffffffffff16908060020154908060030154908060040180546109b590612fda565b80601f01602080910402602001604051908101604052809291908181526020018280546109e190612fda565b8015610a2e5780601f10610a0357610100808354040283529160200191610a2e565b820191906000526020600020905b815481529060010190602001808311610a1157829003601f168201915b5050505050908060050160009054906101000a900460ff16905086565b600260003373ffffffffffffffffffffffffffffffffffffffff1673ffffffffffffffffffffffffffffffffffffffff16815260200190815260200160002060009054906101000a900460ff16610ad7576040517f08c379a0000000000000000000000000000000000000000000000000000000008152600401610ace906130ac565b60405180910390fd5b600e60050160009054906101000a900460ff1615610b2a576040517f08c379a0000000000000000000000000000000000000000000000000000000008152600401610b219061313e565b60405180910390fd5b82600e60010160006101000a81548173ffffffffffffffffffffffffffffffffffffffff021916908373ffffffffffffffffffffffffffffffffffffffff16021790555081600e6000019081610b80919061330a565b506000600e600201819055506000600e600301819055506001600e60050160006101000a81548160ff02191690831515021790555080600e6004019081610bc7919061330a565b50505050565b6000600180549050905090565b6000600c80549050905090565b60098181548110610bf757600080fd5b906000526020600020016000915054906101000a900473ffffffffffffffffffffffffffffffffffffffff1681565b6000600d80549050905090565b600260003373ffffffffffffffffffffffffffffffffffffffff1673ffffffffffffffffffffffffffffffffffffffff16815260200190815260200160002060009054906101000a900460ff16610cbf576040517f08c379a0000000000000000000000000000000000000000000000000000000008152600401610cb6906130ac565b60405180910390fd5b600e60050160009054906101000a900460ff16610d11576040517f08c379a0000000000000000000000000000000000000000000000000000000008152600401610d0890613428565b60405180910390fd5b600660003373ffffffffffffffffffffffffffffffffffffffff1673ffffffffffffffffffffffffffffffffffffffff16815260200190815260200160002060009054906101000a900460ff1615610d9e576040517f08c379a0000000000000000000000000000000000000000000000000000000008152600401610d9590613494565b60405180910390fd5b6001600660003373ffffffffffffffffffffffffffffffffffffffff1673ffffffffffffffffffffffffffffffffffffffff16815260200190815260200160002060006101000a81548160ff0219169083151502179055506009339080600181540180825580915050600190039060005260206000200160009091909190916101000a81548173ffffffffffffffffffffffffffffffffffffffff021916908373ffffffffffffffffffffffffffffffffffffffff160217905550600e6003016000815480929190610e6f906134e3565b91905055508015610e9657600e6002016000815480929190610e90906134e3565b91905055505b6008546007546064600e60020154610eae919061352b565b610eb8919061359c565b1061149757610eeb600e60010160009054906101000a900473ffffffffffffffffffffffffffffffffffffffff166125e8565b6000600e60050160006101000a81548160ff021916908315150217905550600d6040518060c00160405280600e6000018054610f2690612fda565b80601f0160208091040260200160405190810160405280929190818152602001828054610f5290612fda565b8015610f9f5780601f10610f7457610100808354040283529160200191610f9f565b820191906000526020600020905b815481529060010190602001808311610f8257829003601f168201915b50505050508152602001600e60010160009054906101000a900473ffffffffffffffffffffffffffffffffffffffff1673ffffffffffffffffffffffffffffffffffffffff168152602001600e600201548152602001600e600301548152602001600e600401805461101090612fda565b80601f016020809104026020016040519081016040528092919081815260200182805461103c90612fda565b80156110895780601f1061105e57610100808354040283529160200191611089565b820191906000526020600020905b81548152906001019060200180831161106c57829003601f168201915b50505050508152602001600e60050160009054906101000a900460ff161515815250908060018154018082558091505060019003906000526020600020906006020160009091909190915060008201518160000190816110e9919061330a565b5060208201518160010160006101000a81548173ffffffffffffffffffffffffffffffffffffffff021916908373ffffffffffffffffffffffffffffffffffffffff1602179055506040820151816002015560608201518160030155608082015181600401908161115a919061330a565b5060a08201518160050160006101000a81548160ff0219169083151502179055505050600e60000160056000600e60010160009054906101000a900473ffffffffffffffffffffffffffffffffffffffff1673ffffffffffffffffffffffffffffffffffffffff1673ffffffffffffffffffffffffffffffffffffffff16815260200190815260200160002060000190816111f591906135f8565b506040518060400160405280600481526020017f747275650000000000000000000000000000000000000000000000000000000081525060056000600e60010160009054906101000a900473ffffffffffffffffffffffffffffffffffffffff1673ffffffffffffffffffffffffffffffffffffffff1673ffffffffffffffffffffffffffffffffffffffff168152602001908152602001600020600101908161129f919061330a565b50600b6040518060400160405280600e60000180546112bd90612fda565b80601f01602080910402602001604051908101604052809291908181526020018280546112e990612fda565b80156113365780601f1061130b57610100808354040283529160200191611336565b820191906000526020600020905b81548152906001019060200180831161131957829003601f168201915b505050505081526020016040518060400160405280600481526020017f7472756500000000000000000000000000000000000000000000000000000000815250815250908060018154018082558091505060019003906000526020600020906002020160009091909190915060008201518160000190816113b7919061330a565b5060208201518160010190816113cd919061330a565b50505060005b60098054905081101561148357600060066000600984815481106113fa576113f961300b565b5b9060005260206000200160009054906101000a900473ffffffffffffffffffffffffffffffffffffffff1673ffffffffffffffffffffffffffffffffffffffff1673ffffffffffffffffffffffffffffffffffffffff16815260200190815260200160002060006101000a81548160ff02191690831515021790555080806001019150506113d3565b5060096000611492919061274b565b611800565b600e600301546114a5610bcd565b036117ff576000600e60050160006101000a81548160ff021916908315150217905550600d6040518060c00160405280600e60000180546114e590612fda565b80601f016020809104026020016040519081016040528092919081815260200182805461151190612fda565b801561155e5780601f106115335761010080835404028352916020019161155e565b820191906000526020600020905b81548152906001019060200180831161154157829003601f168201915b50505050508152602001600e60010160009054906101000a900473ffffffffffffffffffffffffffffffffffffffff1673ffffffffffffffffffffffffffffffffffffffff168152602001600e600201548152602001600e600301548152602001600e60040180546115cf90612fda565b80601f01602080910402602001604051908101604052809291908181526020018280546115fb90612fda565b80156116485780601f1061161d57610100808354040283529160200191611648565b820191906000526020600020905b81548152906001019060200180831161162b57829003601f168201915b50505050508152602001600e60050160009054906101000a900460ff161515815250908060018154018082558091505060019003906000526020600020906006020160009091909190915060008201518160000190816116a8919061330a565b5060208201518160010160006101000a81548173ffffffffffffffffffffffffffffffffffffffff021916908373ffffffffffffffffffffffffffffffffffffffff16021790555060408201518160020155606082015181600301556080820151816004019081611719919061330a565b5060a08201518160050160006101000a81548160ff021916908315150217905550505060005b6009805490508110156117ef57600060066000600984815481106117665761176561300b565b5b9060005260206000200160009054906101000a900473ffffffffffffffffffffffffffffffffffffffff1673ffffffffffffffffffffffffffffffffffffffff1673ffffffffffffffffffffffffffffffffffffffff16815260200190815260200160002060006101000a81548160ff021916908315150217905550808060010191505061173f565b50600960006117fe919061274b565b5b5b50565b60085481565b60046020528060005260406000206000915090505481565b600060011515600660003373ffffffffffffffffffffffffffffffffffffffff1673ffffffffffffffffffffffffffffffffffffffff16815260200190815260200160002060009054906101000a900460ff161515036118845760019050611889565b600090505b90565b606080600060606000806000600c88815481106118ac576118ab61300b565b5b9060005260206000209060080201600001600c89815481106118d1576118d061300b565b5b9060005260206000209060080201600101600c8a815481106118f6576118f561300b565b5b906000526020600020906008020160020154600c8b8154811061191c5761191b61300b565b5b9060005260206000209060080201600301600c8c815481106119415761194061300b565b5b906000526020600020906008020160040154600c8d815481106119675761196661300b565b5b906000526020600020906008020160050160009054906101000a900473ffffffffffffffffffffffffffffffffffffffff16600c8e815481106119ad576119ac61300b565b5b906000526020600020906008020160070160009054906101000a900473ffffffffffffffffffffffffffffffffffffffff168680546119eb90612fda565b80601f0160208091040260200160405190810160405280929190818152602001828054611a1790612fda565b8015611a645780601f10611a3957610100808354040283529160200191611a64565b820191906000526020600020905b815481529060010190602001808311611a4757829003601f168201915b50505050509650858054611a7790612fda565b80601f0160208091040260200160405190810160405280929190818152602001828054611aa390612fda565b8015611af05780601f10611ac557610100808354040283529160200191611af0565b820191906000526020600020905b815481529060010190602001808311611ad357829003601f168201915b50505050509550838054611b0390612fda565b80601f0160208091040260200160405190810160405280929190818152602001828054611b2f90612fda565b8015611b7c5780601f10611b5157610100808354040283529160200191611b7c565b820191906000526020600020905b815481529060010190602001808311611b5f57829003601f168201915b505050505093509650965096509650965096509650919395979092949650565b600080600090505b600180549050811015611c39578273ffffffffffffffffffffffffffffffffffffffff1660018281548110611bdc57611bdb61300b565b5b9060005260206000200160009054906101000a900473ffffffffffffffffffffffffffffffffffffffff1673ffffffffffffffffffffffffffffffffffffffff1603611c2c576001915050611c3f565b8080600101915050611ba4565b50600090505b919050565b60008054906101000a900473ffffffffffffffffffffffffffffffffffffffff1681565b611c7182611b9c565b611cb0576040517f08c379a0000000000000000000000000000000000000000000000000000000008152600401611ca79061372c565b60405180910390fd5b600c6040518061010001604052808981526020018881526020018781526020018681526020018581526020018473ffffffffffffffffffffffffffffffffffffffff1681526020018381526020013373ffffffffffffffffffffffffffffffffffffffff1681525090806001815401808255809150506001900390600052602060002090600802016000909190919091506000820151816000019081611d56919061330a565b506020820151816001019081611d6c919061330a565b50604082015181600201556060820151816003019081611d8c919061330a565b506080820151816004015560a08201518160050160006101000a81548173ffffffffffffffffffffffffffffffffffffffff021916908373ffffffffffffffffffffffffffffffffffffffff16021790555060c0820151816006015560e08201518160070160006101000a81548173ffffffffffffffffffffffffffffffffffffffff021916908373ffffffffffffffffffffffffffffffffffffffff160217905550505050505050505050565b6060600080600080600d8681548110611e5657611e5561300b565b5b9060005260206000209060060201600001600d8781548110611e7b57611e7a61300b565b5b906000526020600020906006020160010160009054906101000a900473ffffffffffffffffffffffffffffffffffffffff16600d8881548110611ec157611ec061300b565b5b906000526020600020906006020160020154600d8981548110611ee757611ee661300b565b5b906000526020600020906006020160030154600d8a81548110611f0d57611f0c61300b565b5b906000526020600020906006020160050160009054906101000a900460ff16848054611f3890612fda565b80601f0160208091040260200160405190810160405280929190818152602001828054611f6490612fda565b8015611fb15780601f10611f8657610100808354040283529160200191611fb1565b820191906000526020600020905b815481529060010190602001808311611f9457829003601f168201915b505050505094509450945094509450945091939590929450565b6060600180548060200260200160405190810160405280929190818152602001828054801561204f57602002820191906000526020600020905b8160009054906101000a900473ffffffffffffffffffffffffffffffffffffffff1673ffffffffffffffffffffffffffffffffffffffff1681526020019060010190808311612005575b5050505050905090565b600d818154811061206957600080fd5b906000526020600020906006020160009150905080600001805461208c90612fda565b80601f01602080910402602001604051908101604052809291908181526020018280546120b890612fda565b80156121055780601f106120da57610100808354040283529160200191612105565b820191906000526020600020905b8154815290600101906020018083116120e857829003601f168201915b5050505050908060010160009054906101000a900473ffffffffffffffffffffffffffffffffffffffff169080600201549080600301549080600401805461214c90612fda565b80601f016020809104026020016040519081016040528092919081815260200182805461217890612fda565b80156121c55780601f1061219a576101008083540402835291602001916121c5565b820191906000526020600020905b8154815290600101906020018083116121a857829003601f168201915b5050505050908060050160009054906101000a900460ff16905086565b60075481565b6000600a60008154809291906121fd906134e3565b91905055506064424433600a5460405160200161221d94939291906137b5565b6040516020818303038152906040528051906020012060001c6122409190613803565b905090565b600560205280600052604060002060009150905080600001805461226890612fda565b80601f016020809104026020016040519081016040528092919081815260200182805461229490612fda565b80156122e15780601f106122b6576101008083540402835291602001916122e1565b820191906000526020600020905b8154815290600101906020018083116122c457829003601f168201915b5050505050908060010180546122f690612fda565b80601f016020809104026020016040519081016040528092919081815260200182805461232290612fda565b801561236f5780601f106123445761010080835404028352916020019161236f565b820191906000526020600020905b81548152906001019060200180831161235257829003601f168201915b5050505050905082565b600c818154811061238957600080fd5b90600052602060002090600802016000915090508060000180546123ac90612fda565b80601f01602080910402602001604051908101604052809291908181526020018280546123d890612fda565b80156124255780601f106123fa57610100808354040283529160200191612425565b820191906000526020600020905b81548152906001019060200180831161240857829003601f168201915b50505050509080600101805461243a90612fda565b80601f016020809104026020016040519081016040528092919081815260200182805461246690612fda565b80156124b35780601f10612488576101008083540402835291602001916124b3565b820191906000526020600020905b81548152906001019060200180831161249657829003601f168201915b5050505050908060020154908060030180546124ce90612fda565b80601f01602080910402602001604051908101604052809291908181526020018280546124fa90612fda565b80156125475780601f1061251c57610100808354040283529160200191612547565b820191906000526020600020905b81548152906001019060200180831161252a57829003601f168201915b5050505050908060040154908060050160009054906101000a900473ffffffffffffffffffffffffffffffffffffffff16908060060154908060070160009054906101000a900473ffffffffffffffffffffffffffffffffffffffff16905088565b600181815481106125b957600080fd5b906000526020600020016000915054906101000a900473ffffffffffffffffffffffffffffffffffffffff1681565b600260008273ffffffffffffffffffffffffffffffffffffffff1673ffffffffffffffffffffffffffffffffffffffff16815260200190815260200160002060009054906101000a900460ff1615612675576040517f08c379a000000000000000000000000000000000000000000000000000000000815260040161266c90613880565b60405180910390fd5b6001819080600181540180825580915050600190039060005260206000200160009091909190916101000a81548173ffffffffffffffffffffffffffffffffffffffff021916908373ffffffffffffffffffffffffffffffffffffffff1602179055506001600260008373ffffffffffffffffffffffffffffffffffffffff1673ffffffffffffffffffffffffffffffffffffffff16815260200190815260200160002060006101000a81548160ff02191690831515021790555060076000815480929190612743906134e3565b919050555050565b5080546000825590600052602060002090810190612769919061276c565b50565b5b8082111561278557600081600090555060010161276d565b5090565b6000604051905090565b600080fd5b600080fd5b600073ffffffffffffffffffffffffffffffffffffffff82169050919050565b60006127c88261279d565b9050919050565b6127d8816127bd565b81146127e357600080fd5b50565b6000813590506127f5816127cf565b92915050565b60006020828403121561281157612810612793565b5b600061281f848285016127e6565b91505092915050565b60008115159050919050565b61283d81612828565b82525050565b60006020820190506128586000830184612834565b92915050565b600081519050919050565b600082825260208201905092915050565b60005b8381101561289857808201518184015260208101905061287d565b60008484015250505050565b6000601f19601f8301169050919050565b60006128c08261285e565b6128ca8185612869565b93506128da81856020860161287a565b6128e3816128a4565b840191505092915050565b6128f7816127bd565b82525050565b6000819050919050565b612910816128fd565b82525050565b600060a082019050818103600083015261293081886128b5565b905061293f60208301876128ee565b61294c6040830186612907565b6129596060830185612907565b6129666080830184612834565b9695505050505050565b612979816128fd565b811461298457600080fd5b50565b60008135905061299681612970565b92915050565b6000602082840312156129b2576129b1612793565b5b60006129c084828501612987565b91505092915050565b600060408201905081810360008301526129e381856128b5565b905081810360208301526129f781846128b5565b90509392505050565b600060c0820190508181036000830152612a1a81896128b5565b9050612a2960208301886128ee565b612a366040830187612907565b612a436060830186612907565b8181036080830152612a5581856128b5565b9050612a6460a0830184612834565b979650505050505050565b600080fd5b600080fd5b7f4e487b7100000000000000000000000000000000000000000000000000000000600052604160045260246000fd5b612ab1826128a4565b810181811067ffffffffffffffff82111715612ad057612acf612a79565b5b80604052505050565b6000612ae3612789565b9050612aef8282612aa8565b919050565b600067ffffffffffffffff821115612b0f57612b0e612a79565b5b612b18826128a4565b9050602081019050919050565b82818337600083830152505050565b6000612b47612b4284612af4565b612ad9565b905082815260208101848484011115612b6357612b62612a74565b5b612b6e848285612b25565b509392505050565b600082601f830112612b8b57612b8a612a6f565b5b8135612b9b848260208601612b34565b91505092915050565b600080600060608486031215612bbd57612bbc612793565b5b6000612bcb868287016127e6565b935050602084013567ffffffffffffffff811115612bec57612beb612798565b5b612bf886828701612b76565b925050604084013567ffffffffffffffff811115612c1957612c18612798565b5b612c2586828701612b76565b9150509250925092565b6000602082019050612c446000830184612907565b92915050565b6000602082019050612c5f60008301846128ee565b92915050565b612c6e81612828565b8114612c7957600080fd5b50565b600081359050612c8b81612c65565b92915050565b600060208284031215612ca757612ca6612793565b5b6000612cb584828501612c7c565b91505092915050565b600060e0820190508181036000830152612cd8818a6128b5565b90508181036020830152612cec81896128b5565b9050612cfb6040830188612907565b8181036060830152612d0d81876128b5565b9050612d1c6080830186612907565b612d2960a08301856128ee565b612d3660c08301846128ee565b98975050505050505050565b600080600080600080600060e0888a031215612d6157612d60612793565b5b600088013567ffffffffffffffff811115612d7f57612d7e612798565b5b612d8b8a828b01612b76565b975050602088013567ffffffffffffffff811115612dac57612dab612798565b5b612db88a828b01612b76565b9650506040612dc98a828b01612987565b955050606088013567ffffffffffffffff811115612dea57612de9612798565b5b612df68a828b01612b76565b9450506080612e078a828b01612987565b93505060a0612e188a828b016127e6565b92505060c0612e298a828b01612987565b91505092959891949750929550565b600081519050919050565b600082825260208201905092915050565b6000819050602082019050919050565b612e6d816127bd565b82525050565b6000612e7f8383612e64565b60208301905092915050565b6000602082019050919050565b6000612ea382612e38565b612ead8185612e43565b9350612eb883612e54565b8060005b83811015612ee9578151612ed08882612e73565b9750612edb83612e8b565b925050600181019050612ebc565b5085935050505092915050565b60006020820190508181036000830152612f108184612e98565b905092915050565b6000610100820190508181036000830152612f33818b6128b5565b90508181036020830152612f47818a6128b5565b9050612f566040830189612907565b8181036060830152612f6881886128b5565b9050612f776080830187612907565b612f8460a08301866128ee565b612f9160c0830185612907565b612f9e60e08301846128ee565b9998505050505050505050565b7f4e487b7100000000000000000000000000000000000000000000000000000000600052602260045260246000fd5b60006002820490506001821680612ff257607f821691505b60208210810361300557613004612fab565b5b50919050565b7f4e487b7100000000000000000000000000000000000000000000000000000000600052603260045260246000fd5b7f4f6e6c79206d656d626572732063616e20706572666f726d207468697320616360008201527f74696f6e00000000000000000000000000000000000000000000000000000000602082015250565b6000613096602483612869565b91506130a18261303a565b604082019050919050565b600060208201905081810360008301526130c581613089565b9050919050565b7f546865726520697320616c726561647920616e206163746976652070726f706f60008201527f73616c0000000000000000000000000000000000000000000000000000000000602082015250565b6000613128602383612869565b9150613133826130cc565b604082019050919050565b600060208201905081810360008301526131578161311b565b9050919050565b60008190508160005260206000209050919050565b60006020601f8301049050919050565b600082821b905092915050565b6000600883026131c07fffffffffffffffffffffffffffffffffffffffffffffffffffffffffffffffff82613183565b6131ca8683613183565b95508019841693508086168417925050509392505050565b6000819050919050565b60006132076132026131fd846128fd565b6131e2565b6128fd565b9050919050565b6000819050919050565b613221836131ec565b61323561322d8261320e565b848454613190565b825550505050565b600090565b61324a61323d565b613255818484613218565b505050565b5b818110156132795761326e600082613242565b60018101905061325b565b5050565b601f8211156132be5761328f8161315e565b61329884613173565b810160208510156132a7578190505b6132bb6132b385613173565b83018261325a565b50505b505050565b600082821c905092915050565b60006132e1600019846008026132c3565b1980831691505092915050565b60006132fa83836132d0565b9150826002028217905092915050565b6133138261285e565b67ffffffffffffffff81111561332c5761332b612a79565b5b6133368254612fda565b61334182828561327d565b600060209050601f8311600181146133745760008415613362578287015190505b61336c85826132ee565b8655506133d4565b601f1984166133828661315e565b60005b828110156133aa57848901518255600182019150602085019450602081019050613385565b868310156133c757848901516133c3601f8916826132d0565b8355505b6001600288020188555050505b505050505050565b7f4e6f206163746976652070726f706f73616c0000000000000000000000000000600082015250565b6000613412601283612869565b915061341d826133dc565b602082019050919050565b6000602082019050818103600083015261344181613405565b9050919050565b7f596f75206861766520616c726561647920766f74656400000000000000000000600082015250565b600061347e601683612869565b915061348982613448565b602082019050919050565b600060208201905081810360008301526134ad81613471565b9050919050565b7f4e487b7100000000000000000000000000000000000000000000000000000000600052601160045260246000fd5b60006134ee826128fd565b91507fffffffffffffffffffffffffffffffffffffffffffffffffffffffffffffffff82036135205761351f6134b4565b5b600182019050919050565b6000613536826128fd565b9150613541836128fd565b925082820261354f816128fd565b91508282048414831517613566576135656134b4565b5b5092915050565b7f4e487b7100000000000000000000000000000000000000000000000000000000600052601260045260246000fd5b60006135a7826128fd565b91506135b2836128fd565b9250826135c2576135c161356d565b5b828204905092915050565b6000815490506135dc81612fda565b9050919050565b60008190508160005260206000209050919050565b8181036136065750506136de565b61360f826135cd565b67ffffffffffffffff81111561362857613627612a79565b5b6136328254612fda565b61363d82828561327d565b6000601f83116001811461366c576000841561365a578287015490505b61366485826132ee565b8655506136d7565b601f19841661367a876135e3565b96506136858661315e565b60005b828110156136ad57848901548255600182019150600185019450602081019050613688565b868310156136ca57848901546136c6601f8916826132d0565b8355505b6001600288020188555050505b5050505050505b565b7f41646472657373206973206e6f742061206d656d626572000000000000000000600082015250565b6000613716601783612869565b9150613721826136e0565b602082019050919050565b6000602082019050818103600083015261374581613709565b9050919050565b6000819050919050565b613767613762826128fd565b61374c565b82525050565b60008160601b9050919050565b60006137858261376d565b9050919050565b60006137978261377a565b9050919050565b6137af6137aa826127bd565b61378c565b82525050565b60006137c18287613756565b6020820191506137d18286613756565b6020820191506137e1828561379e565b6014820191506137f18284613756565b60208201915081905095945050505050565b600061380e826128fd565b9150613819836128fd565b9250826138295761382861356d565b5b828206905092915050565b7f4164647265737320697320616c726561647920617661696c61626c6500000000600082015250565b600061386a601c83612869565b915061387582613834565b602082019050919050565b600060208201905081810360008301526138998161385d565b905091905056fea26469706673582212205dae7d8630a95358e7502350fb6d16aba9cd063775041d24439ba6f91e98095664736f6c63430008180033",
  "linkReferences": {},
  "deployedLinkReferences": {}
}