{
  "_format": "hh-sol-artifact-1",
  "contractName": "SupplyChainContract",
  "sourceName": "contracts/SupplyChainContract.sol",
  "abi": [
    {
      "inputs": [],
      "stateMutability": "nonpayable",
      "type": "constructor"
    },
    {
      "inputs": [
        {
          "internalType": "address",
          "name": "",
          "type": "address"
        }
      ],
      "name": "actors",
      "outputs": [
        {
          "internalType": "string",
          "name": "actorName",
          "type": "string"
        },
        {
          "internalType": "string",
          "name": "priamryProducer",
          "type": "string"
        }
      ],
      "stateMutability": "view",
      "type": "function"
    },
    {
      "inputs": [
        {
          "internalType": "uint256",
          "name": "",
          "type": "uint256"
        }
      ],
      "name": "actorsData",
      "outputs": [
        {
          "internalType": "string",
          "name": "actorName",
          "type": "string"
        },
        {
          "internalType": "string",
          "name": "priamryProducer",
          "type": "string"
        }
      ],
      "stateMutability": "view",
      "type": "function"
    },
    {
      "inputs": [
        {
          "internalType": "string",
          "name": "stage",
          "type": "string"
        },
        {
          "internalType": "string",
          "name": "details",
          "type": "string"
        },
        {
          "internalType": "uint256",
          "name": "quantity",
          "type": "uint256"
        },
        {
          "internalType": "string",
          "name": "location",
          "type": "string"
        },
        {
          "internalType": "uint256",
          "name": "timestamp",
          "type": "uint256"
        },
        {
          "internalType": "address",
          "name": "source",
          "type": "address"
        },
        {
          "internalType": "uint256",
          "name": "chainId",
          "type": "uint256"
        }
      ],
      "name": "addLot",
      "outputs": [],
      "stateMutability": "nonpayable",
      "type": "function"
    },
    {
      "inputs": [
        {
          "internalType": "uint256",
          "name": "",
          "type": "uint256"
        }
      ],
      "name": "availableAddresses",
      "outputs": [
        {
          "internalType": "address",
          "name": "",
          "type": "address"
        }
      ],
      "stateMutability": "view",
      "type": "function"
    },
    {
      "inputs": [],
      "name": "currentProposal",
      "outputs": [
        {
          "internalType": "string",
          "name": "name",
          "type": "string"
        },
        {
          "internalType": "address",
          "name": "proposedAddress",
          "type": "address"
        },
        {
          "internalType": "uint256",
          "name": "voteCount",
          "type": "uint256"
        },
        {
          "internalType": "uint256",
          "name": "totalVoteCount",
          "type": "uint256"
        },
        {
          "internalType": "string",
          "name": "primaryProduer",
          "type": "string"
        },
        {
          "internalType": "bool",
          "name": "isActive",
          "type": "bool"
        }
      ],
      "stateMutability": "view",
      "type": "function"
    },
    {
      "inputs": [],
      "name": "getAllLotsCount",
      "outputs": [
        {
          "internalType": "uint256",
          "name": "",
          "type": "uint256"
        }
      ],
      "stateMutability": "view",
      "type": "function"
    },
    {
      "inputs": [],
      "name": "getAvailableAddresses",
      "outputs": [
        {
          "internalType": "address[]",
          "name": "",
          "type": "address[]"
        }
      ],
      "stateMutability": "view",
      "type": "function"
    },
    {
      "inputs": [],
      "name": "getAvailableAddressesCount",
      "outputs": [
        {
          "internalType": "uint256",
          "name": "",
          "type": "uint256"
        }
      ],
      "stateMutability": "view",
      "type": "function"
    },
    {
      "inputs": [
        {
          "internalType": "address",
          "name": "_address",
          "type": "address"
        }
      ],
      "name": "getIfAdressIsMember",
      "outputs": [
        {
          "internalType": "bool",
          "name": "",
          "type": "bool"
        }
      ],
      "stateMutability": "view",
      "type": "function"
    },
    {
      "inputs": [],
      "name": "getIfSenderIsMember",
      "outputs": [
        {
          "internalType": "bool",
          "name": "",
          "type": "bool"
        }
      ],
      "stateMutability": "view",
      "type": "function"
    },
    {
      "inputs": [],
      "name": "getNumberOfPreviousProposal",
      "outputs": [
        {
          "internalType": "uint256",
          "name": "",
          "type": "uint256"
        }
      ],
      "stateMutability": "view",
      "type": "function"
    },
    {
      "inputs": [
        {
          "internalType": "uint256",
          "name": "index",
          "type": "uint256"
        }
      ],
      "name": "getPreviousProposalDetails",
      "outputs": [
        {
          "internalType": "string",
          "name": "name",
          "type": "string"
        },
        {
          "internalType": "address",
          "name": "proposedAddress",
          "type": "address"
        },
        {
          "internalType": "uint256",
          "name": "voteCounts",
          "type": "uint256"
        },
        {
          "internalType": "uint256",
          "name": "totalVoteCount",
          "type": "uint256"
        },
        {
          "internalType": "bool",
          "name": "isActive",
          "type": "bool"
        }
      ],
      "stateMutability": "view",
      "type": "function"
    },
    {
      "inputs": [],
      "name": "getProposalDetails",
      "outputs": [
        {
          "internalType": "string",
          "name": "name",
          "type": "string"
        },
        {
          "internalType": "address",
          "name": "proposedAddress",
          "type": "address"
        },
        {
          "internalType": "uint256",
          "name": "voteCounts",
          "type": "uint256"
        },
        {
          "internalType": "uint256",
          "name": "totalVoteCount",
          "type": "uint256"
        },
        {
          "internalType": "bool",
          "name": "isActive",
          "type": "bool"
        }
      ],
      "stateMutability": "view",
      "type": "function"
    },
    {
      "inputs": [],
      "name": "getRandomNumber",
      "outputs": [
        {
          "internalType": "uint256",
          "name": "",
          "type": "uint256"
        }
      ],
      "stateMutability": "nonpayable",
      "type": "function"
    },
    {
      "inputs": [
        {
          "internalType": "uint256",
          "name": "index",
          "type": "uint256"
        }
      ],
      "name": "getSingleLot",
      "outputs": [
        {
          "internalType": "string",
          "name": "",
          "type": "string"
        },
        {
          "internalType": "string",
          "name": "",
          "type": "string"
        },
        {
          "internalType": "uint256",
          "name": "",
          "type": "uint256"
        },
        {
          "internalType": "string",
          "name": "",
          "type": "string"
        },
        {
          "internalType": "uint256",
          "name": "",
          "type": "uint256"
        },
        {
          "internalType": "address",
          "name": "",
          "type": "address"
        },
        {
          "internalType": "address",
          "name": "",
          "type": "address"
        }
      ],
      "stateMutability": "view",
      "type": "function"
    },
    {
      "inputs": [
        {
          "internalType": "uint256",
          "name": "index",
          "type": "uint256"
        }
      ],
      "name": "getSingleLotWithChainId",
      "outputs": [
        {
          "internalType": "string",
          "name": "",
          "type": "string"
        },
        {
          "internalType": "uint256",
          "name": "",
          "type": "uint256"
        },
        {
          "internalType": "uint256",
          "name": "",
          "type": "uint256"
        },
        {
          "internalType": "string",
          "name": "",
          "type": "string"
        },
        {
          "internalType": "uint256",
          "name": "",
          "type": "uint256"
        },
        {
          "internalType": "address",
          "name": "",
          "type": "address"
        },
        {
          "internalType": "address",
          "name": "",
          "type": "address"
        }
      ],
      "stateMutability": "view",
      "type": "function"
    },
    {
      "inputs": [
        {
          "internalType": "address",
          "name": "",
          "type": "address"
        }
      ],
      "name": "hasVoted",
      "outputs": [
        {
          "internalType": "bool",
          "name": "",
          "type": "bool"
        }
      ],
      "stateMutability": "view",
      "type": "function"
    },
    {
      "inputs": [
        {
          "internalType": "address",
          "name": "",
          "type": "address"
        }
      ],
      "name": "isAvailable",
      "outputs": [
        {
          "internalType": "bool",
          "name": "",
          "type": "bool"
        }
      ],
      "stateMutability": "view",
      "type": "function"
    },
    {
      "inputs": [
        {
          "internalType": "uint256",
          "name": "",
          "type": "uint256"
        }
      ],
      "name": "lots",
      "outputs": [
        {
          "internalType": "string",
          "name": "stage",
          "type": "string"
        },
        {
          "internalType": "string",
          "name": "details",
          "type": "string"
        },
        {
          "internalType": "uint256",
          "name": "quantity",
          "type": "uint256"
        },
        {
          "internalType": "string",
          "name": "location",
          "type": "string"
        },
        {
          "internalType": "uint256",
          "name": "timestamp",
          "type": "uint256"
        },
        {
          "internalType": "address",
          "name": "source",
          "type": "address"
        },
        {
          "internalType": "uint256",
          "name": "chainId",
          "type": "uint256"
        },
        {
          "internalType": "address",
          "name": "creator",
          "type": "address"
        }
      ],
      "stateMutability": "view",
      "type": "function"
    },
    {
      "inputs": [],
      "name": "owner",
      "outputs": [
        {
          "internalType": "address",
          "name": "",
          "type": "address"
        }
      ],
      "stateMutability": "view",
      "type": "function"
    },
    {
      "inputs": [
        {
          "internalType": "uint256",
          "name": "",
          "type": "uint256"
        }
      ],
      "name": "previousProposals",
      "outputs": [
        {
          "internalType": "string",
          "name": "name",
          "type": "string"
        },
        {
          "internalType": "address",
          "name": "proposedAddress",
          "type": "address"
        },
        {
          "internalType": "uint256",
          "name": "voteCount",
          "type": "uint256"
        },
        {
          "internalType": "uint256",
          "name": "totalVoteCount",
          "type": "uint256"
        },
        {
          "internalType": "string",
          "name": "primaryProduer",
          "type": "string"
        },
        {
          "internalType": "bool",
          "name": "isActive",
          "type": "bool"
        }
      ],
      "stateMutability": "view",
      "type": "function"
    },
    {
      "inputs": [
        {
          "internalType": "address",
          "name": "_address",
          "type": "address"
        },
        {
          "internalType": "string",
          "name": "name",
          "type": "string"
        },
        {
          "internalType": "string",
          "name": "isPrimary",
          "type": "string"
        }
      ],
      "name": "proposeAddress",
      "outputs": [],
      "stateMutability": "nonpayable",
      "type": "function"
    },
    {
      "inputs": [],
      "name": "totalAddresses",
      "outputs": [
        {
          "internalType": "uint256",
          "name": "",
          "type": "uint256"
        }
      ],
      "stateMutability": "view",
      "type": "function"
    },
    {
      "inputs": [
        {
          "internalType": "bool",
          "name": "voteResult",
          "type": "bool"
        }
      ],
      "name": "vote",
      "outputs": [],
      "stateMutability": "nonpayable",
      "type": "function"
    },
    {
      "inputs": [
        {
          "internalType": "address",
          "name": "",
          "type": "address"
        }
      ],
      "name": "voteCount",
      "outputs": [
        {
          "internalType": "uint256",
          "name": "",
          "type": "uint256"
        }
      ],
      "stateMutability": "view",
      "type": "function"
    },
    {
      "inputs": [],
      "name": "voteThreshold",
      "outputs": [
        {
          "internalType": "uint256",
          "name": "",
          "type": "uint256"
        }
      ],
      "stateMutability": "view",
      "type": "function"
    },
    {
      "inputs": [],
      "name": "votedInCurrentProposal",
      "outputs": [
        {
          "internalType": "bool",
          "name": "",
          "type": "bool"
        }
      ],
      "stateMutability": "view",
      "type": "function"
    },
    {
      "inputs": [
        {
          "internalType": "uint256",
          "name": "",
          "type": "uint256"
        }
      ],
      "name": "votersAddress",
      "outputs": [
        {
          "internalType": "address",
          "name": "",
          "type": "address"
        }
      ],
      "stateMutability": "view",
      "type": "function"
    }
  ],
  "bytecode": "0x608060405260466008556000600a553480156200001b57600080fd5b50336000806101000a81548173ffffffffffffffffffffffffffffffffffffffff021916908373ffffffffffffffffffffffffffffffffffffffff1602179055506200008d60008054906101000a900473ffffffffffffffffffffffffffffffffffffffff166200009360201b60201c565b62000304565b600260008273ffffffffffffffffffffffffffffffffffffffff1673ffffffffffffffffffffffffffffffffffffffff16815260200190815260200160002060009054906101000a900460ff161562000123576040517f08c379a00000000000000000000000000000000000000000000000000000000081526004016200011a906200025c565b60405180910390fd5b6001819080600181540180825580915050600190039060005260206000200160009091909190916101000a81548173ffffffffffffffffffffffffffffffffffffffff021916908373ffffffffffffffffffffffffffffffffffffffff1602179055506001600260008373ffffffffffffffffffffffffffffffffffffffff1673ffffffffffffffffffffffffffffffffffffffff16815260200190815260200160002060006101000a81548160ff02191690831515021790555060076000815480929190620001f390620002b7565b919050555050565b600082825260208201905092915050565b7f4164647265737320697320616c726561647920617661696c61626c6500000000600082015250565b600062000244601c83620001fb565b915062000251826200020c565b602082019050919050565b60006020820190508181036000830152620002778162000235565b9050919050565b7f4e487b7100000000000000000000000000000000000000000000000000000000600052601160045260246000fd5b6000819050919050565b6000620002c482620002ad565b91507fffffffffffffffffffffffffffffffffffffffffffffffffffffffffffffffff8203620002f957620002f86200027e565b5b600182019050919050565b613c2980620003146000396000f3fe608060405234801561001057600080fd5b50600436106101c45760003560e01c80635f3e6e28116100f9578063c8f0c48511610097578063e24d705411610071578063e24d70541461054e578063eaa66a3c14610584578063f1648e84146105b5578063fe3a6b9a146105ec576101c4565b8063c8f0c485146104dd578063cfad527714610512578063dbdff2c114610530576101c4565b80638da5cb5b116100d35780638da5cb5b14610451578063aa2b83441461046f578063abdde4431461048b578063c64c8950146104bf576101c4565b80635f3e6e28146103cd578063674cbbed146103eb5780638cb609b714610421576101c4565b806340116ea31161016657806349bb5b5e1161014057806349bb5b5e146103455780634b9f5c98146103635780634fe437d51461037f5780635e3cd7bc1461039d576101c4565b806340116ea3146102d9578063421e83bc146102f757806343242daa14610315576101c4565b8063209e6314116101a2578063209e6314146102395780632896f60b1461026a5780632b49d4251461029a5780633dfcc29d146102bd576101c4565b806309eef43e146101c9578063108cb089146101f95780631af6159f1461021b575b600080fd5b6101e360048036038101906101de9190612ad1565b61061c565b6040516101f09190612b19565b60405180910390f35b61020161063c565b604051610212959493929190612bec565b60405180910390f35b61022361072b565b6040516102309190612b19565b60405180910390f35b610253600480360381019061024e9190612c72565b6107d1565b604051610261929190612c9f565b60405180910390f35b610284600480360381019061027f9190612ad1565b610915565b6040516102919190612b19565b60405180910390f35b6102a2610935565b6040516102b496959493929190612cd6565b60405180910390f35b6102d760048036038101906102d29190612e7a565b610a9c565b005b6102e1610c1e565b6040516102ee9190612f05565b60405180910390f35b6102ff610c2b565b60405161030c9190612f05565b60405180910390f35b61032f600480360381019061032a9190612c72565b610c38565b60405161033c9190612f20565b60405180910390f35b61034d610c77565b60405161035a9190612f05565b60405180910390f35b61037d60048036038101906103789190612f67565b610c84565b005b610387611854565b6040516103949190612f05565b60405180910390f35b6103b760048036038101906103b29190612ad1565b61185a565b6040516103c49190612f05565b60405180910390f35b6103d5611872565b6040516103e29190612b19565b60405180910390f35b61040560048036038101906104009190612c72565b6118dd565b6040516104189796959493929190612f94565b60405180910390f35b61043b60048036038101906104369190612ad1565b611bed565b6040516104489190612b19565b60405180910390f35b610459611c95565b6040516104669190612f20565b60405180910390f35b61048960048036038101906104849190613018565b611cb9565b005b6104a560048036038101906104a09190612c72565b611e8b565b6040516104b6959493929190612bec565b60405180910390f35b6104c761201c565b6040516104d491906131cc565b60405180910390f35b6104f760048036038101906104f29190612c72565b6120aa565b60405161050996959493929190612cd6565b60405180910390f35b61051a612233565b6040516105279190612f05565b60405180910390f35b610538612239565b6040516105459190612f05565b60405180910390f35b61056860048036038101906105639190612c72565b612296565b60405161057b97969594939291906131ee565b60405180910390f35b61059e60048036038101906105999190612ad1565b61251b565b6040516105ac929190612c9f565b60405180910390f35b6105cf60048036038101906105ca9190612c72565b61264f565b6040516105e398979695949392919061326b565b60405180910390f35b61060660048036038101906106019190612c72565b61287f565b6040516106139190612f20565b60405180910390f35b60036020528060005260406000206000915054906101000a900460ff1681565b6060600080600080600e600001600e60010160009054906101000a900473ffffffffffffffffffffffffffffffffffffffff16600e60020154600e60030154600e60050160009054906101000a900460ff1684805461069a9061332d565b80601f01602080910402602001604051908101604052809291908181526020018280546106c69061332d565b80156107135780601f106106e857610100808354040283529160200191610713565b820191906000526020600020905b8154815290600101906020018083116106f657829003601f168201915b50505050509450945094509450945094509091929394565b600080600090505b6001805490508110156107c8573373ffffffffffffffffffffffffffffffffffffffff166001828154811061076b5761076a61335e565b5b9060005260206000200160009054906101000a900473ffffffffffffffffffffffffffffffffffffffff1673ffffffffffffffffffffffffffffffffffffffff16036107bb5760019150506107ce565b8080600101915050610733565b50600090505b90565b600b81815481106107e157600080fd5b90600052602060002090600202016000915090508060000180546108049061332d565b80601f01602080910402602001604051908101604052809291908181526020018280546108309061332d565b801561087d5780601f106108525761010080835404028352916020019161087d565b820191906000526020600020905b81548152906001019060200180831161086057829003601f168201915b5050505050908060010180546108929061332d565b80601f01602080910402602001604051908101604052809291908181526020018280546108be9061332d565b801561090b5780601f106108e05761010080835404028352916020019161090b565b820191906000526020600020905b8154815290600101906020018083116108ee57829003601f168201915b5050505050905082565b60026020528060005260406000206000915054906101000a900460ff1681565b600e8060000180546109469061332d565b80601f01602080910402602001604051908101604052809291908181526020018280546109729061332d565b80156109bf5780601f10610994576101008083540402835291602001916109bf565b820191906000526020600020905b8154815290600101906020018083116109a257829003601f168201915b5050505050908060010160009054906101000a900473ffffffffffffffffffffffffffffffffffffffff1690806002015490806003015490806004018054610a069061332d565b80601f0160208091040260200160405190810160405280929190818152602001828054610a329061332d565b8015610a7f5780601f10610a5457610100808354040283529160200191610a7f565b820191906000526020600020905b815481529060010190602001808311610a6257829003601f168201915b5050505050908060050160009054906101000a900460ff16905086565b600260003373ffffffffffffffffffffffffffffffffffffffff1673ffffffffffffffffffffffffffffffffffffffff16815260200190815260200160002060009054906101000a900460ff16610b28576040517f08c379a0000000000000000000000000000000000000000000000000000000008152600401610b1f906133ff565b60405180910390fd5b600e60050160009054906101000a900460ff1615610b7b576040517f08c379a0000000000000000000000000000000000000000000000000000000008152600401610b7290613491565b60405180910390fd5b82600e60010160006101000a81548173ffffffffffffffffffffffffffffffffffffffff021916908373ffffffffffffffffffffffffffffffffffffffff16021790555081600e6000019081610bd1919061365d565b506000600e600201819055506000600e600301819055506001600e60050160006101000a81548160ff02191690831515021790555080600e6004019081610c18919061365d565b50505050565b6000600180549050905090565b6000600c80549050905090565b60098181548110610c4857600080fd5b906000526020600020016000915054906101000a900473ffffffffffffffffffffffffffffffffffffffff1681565b6000600d80549050905090565b600260003373ffffffffffffffffffffffffffffffffffffffff1673ffffffffffffffffffffffffffffffffffffffff16815260200190815260200160002060009054906101000a900460ff16610d10576040517f08c379a0000000000000000000000000000000000000000000000000000000008152600401610d07906133ff565b60405180910390fd5b600e60050160009054906101000a900460ff16610d62576040517f08c379a0000000000000000000000000000000000000000000000000000000008152600401610d599061377b565b60405180910390fd5b600660003373ffffffffffffffffffffffffffffffffffffffff1673ffffffffffffffffffffffffffffffffffffffff16815260200190815260200160002060009054906101000a900460ff1615610def576040517f08c379a0000000000000000000000000000000000000000000000000000000008152600401610de6906137e7565b60405180910390fd5b6001600660003373ffffffffffffffffffffffffffffffffffffffff1673ffffffffffffffffffffffffffffffffffffffff16815260200190815260200160002060006101000a81548160ff0219169083151502179055506009339080600181540180825580915050600190039060005260206000200160009091909190916101000a81548173ffffffffffffffffffffffffffffffffffffffff021916908373ffffffffffffffffffffffffffffffffffffffff160217905550600e6003016000815480929190610ec090613836565b91905055508015610ee757600e6002016000815480929190610ee190613836565b91905055505b6008546007546064600e60020154610eff919061387e565b610f0991906138ef565b106114e857610f3c600e60010160009054906101000a900473ffffffffffffffffffffffffffffffffffffffff166128be565b6000600e60050160006101000a81548160ff021916908315150217905550600d6040518060c00160405280600e6000018054610f779061332d565b80601f0160208091040260200160405190810160405280929190818152602001828054610fa39061332d565b8015610ff05780601f10610fc557610100808354040283529160200191610ff0565b820191906000526020600020905b815481529060010190602001808311610fd357829003601f168201915b50505050508152602001600e60010160009054906101000a900473ffffffffffffffffffffffffffffffffffffffff1673ffffffffffffffffffffffffffffffffffffffff168152602001600e600201548152602001600e600301548152602001600e60040180546110619061332d565b80601f016020809104026020016040519081016040528092919081815260200182805461108d9061332d565b80156110da5780601f106110af576101008083540402835291602001916110da565b820191906000526020600020905b8154815290600101906020018083116110bd57829003601f168201915b50505050508152602001600e60050160009054906101000a900460ff1615158152509080600181540180825580915050600190039060005260206000209060060201600090919091909150600082015181600001908161113a919061365d565b5060208201518160010160006101000a81548173ffffffffffffffffffffffffffffffffffffffff021916908373ffffffffffffffffffffffffffffffffffffffff160217905550604082015181600201556060820151816003015560808201518160040190816111ab919061365d565b5060a08201518160050160006101000a81548160ff0219169083151502179055505050600e60000160056000600e60010160009054906101000a900473ffffffffffffffffffffffffffffffffffffffff1673ffffffffffffffffffffffffffffffffffffffff1673ffffffffffffffffffffffffffffffffffffffff1681526020019081526020016000206000019081611246919061394b565b506040518060400160405280600481526020017f747275650000000000000000000000000000000000000000000000000000000081525060056000600e60010160009054906101000a900473ffffffffffffffffffffffffffffffffffffffff1673ffffffffffffffffffffffffffffffffffffffff1673ffffffffffffffffffffffffffffffffffffffff16815260200190815260200160002060010190816112f0919061365d565b50600b6040518060400160405280600e600001805461130e9061332d565b80601f016020809104026020016040519081016040528092919081815260200182805461133a9061332d565b80156113875780601f1061135c57610100808354040283529160200191611387565b820191906000526020600020905b81548152906001019060200180831161136a57829003601f168201915b505050505081526020016040518060400160405280600481526020017f747275650000000000000000000000000000000000000000000000000000000081525081525090806001815401808255809150506001900390600052602060002090600202016000909190919091506000820151816000019081611408919061365d565b50602082015181600101908161141e919061365d565b50505060005b6009805490508110156114d4576000600660006009848154811061144b5761144a61335e565b5b9060005260206000200160009054906101000a900473ffffffffffffffffffffffffffffffffffffffff1673ffffffffffffffffffffffffffffffffffffffff1673ffffffffffffffffffffffffffffffffffffffff16815260200190815260200160002060006101000a81548160ff0219169083151502179055508080600101915050611424565b50600960006114e39190612a21565b611851565b600e600301546114f6610c1e565b03611850576000600e60050160006101000a81548160ff021916908315150217905550600d6040518060c00160405280600e60000180546115369061332d565b80601f01602080910402602001604051908101604052809291908181526020018280546115629061332d565b80156115af5780601f10611584576101008083540402835291602001916115af565b820191906000526020600020905b81548152906001019060200180831161159257829003601f168201915b50505050508152602001600e60010160009054906101000a900473ffffffffffffffffffffffffffffffffffffffff1673ffffffffffffffffffffffffffffffffffffffff168152602001600e600201548152602001600e600301548152602001600e60040180546116209061332d565b80601f016020809104026020016040519081016040528092919081815260200182805461164c9061332d565b80156116995780601f1061166e57610100808354040283529160200191611699565b820191906000526020600020905b81548152906001019060200180831161167c57829003601f168201915b50505050508152602001600e60050160009054906101000a900460ff161515815250908060018154018082558091505060019003906000526020600020906006020160009091909190915060008201518160000190816116f9919061365d565b5060208201518160010160006101000a81548173ffffffffffffffffffffffffffffffffffffffff021916908373ffffffffffffffffffffffffffffffffffffffff1602179055506040820151816002015560608201518160030155608082015181600401908161176a919061365d565b5060a08201518160050160006101000a81548160ff021916908315150217905550505060005b60098054905081101561184057600060066000600984815481106117b7576117b661335e565b5b9060005260206000200160009054906101000a900473ffffffffffffffffffffffffffffffffffffffff1673ffffffffffffffffffffffffffffffffffffffff1673ffffffffffffffffffffffffffffffffffffffff16815260200190815260200160002060006101000a81548160ff0219169083151502179055508080600101915050611790565b506009600061184f9190612a21565b5b5b50565b60085481565b60046020528060005260406000206000915090505481565b600060011515600660003373ffffffffffffffffffffffffffffffffffffffff1673ffffffffffffffffffffffffffffffffffffffff16815260200190815260200160002060009054906101000a900460ff161515036118d557600190506118da565b600090505b90565b606080600060606000806000600c88815481106118fd576118fc61335e565b5b9060005260206000209060080201600001600c89815481106119225761192161335e565b5b9060005260206000209060080201600101600c8a815481106119475761194661335e565b5b906000526020600020906008020160020154600c8b8154811061196d5761196c61335e565b5b9060005260206000209060080201600301600c8c815481106119925761199161335e565b5b906000526020600020906008020160040154600c8d815481106119b8576119b761335e565b5b906000526020600020906008020160050160009054906101000a900473ffffffffffffffffffffffffffffffffffffffff16600c8e815481106119fe576119fd61335e565b5b906000526020600020906008020160070160009054906101000a900473ffffffffffffffffffffffffffffffffffffffff16868054611a3c9061332d565b80601f0160208091040260200160405190810160405280929190818152602001828054611a689061332d565b8015611ab55780601f10611a8a57610100808354040283529160200191611ab5565b820191906000526020600020905b815481529060010190602001808311611a9857829003601f168201915b50505050509650858054611ac89061332d565b80601f0160208091040260200160405190810160405280929190818152602001828054611af49061332d565b8015611b415780601f10611b1657610100808354040283529160200191611b41565b820191906000526020600020905b815481529060010190602001808311611b2457829003601f168201915b50505050509550838054611b549061332d565b80601f0160208091040260200160405190810160405280929190818152602001828054611b809061332d565b8015611bcd5780601f10611ba257610100808354040283529160200191611bcd565b820191906000526020600020905b815481529060010190602001808311611bb057829003601f168201915b505050505093509650965096509650965096509650919395979092949650565b600080600090505b600180549050811015611c8a578273ffffffffffffffffffffffffffffffffffffffff1660018281548110611c2d57611c2c61335e565b5b9060005260206000200160009054906101000a900473ffffffffffffffffffffffffffffffffffffffff1673ffffffffffffffffffffffffffffffffffffffff1603611c7d576001915050611c90565b8080600101915050611bf5565b50600090505b919050565b60008054906101000a900473ffffffffffffffffffffffffffffffffffffffff1681565b611cc282611bed565b611d01576040517f08c379a0000000000000000000000000000000000000000000000000000000008152600401611cf890613a7f565b60405180910390fd5b600c6040518061010001604052808981526020018881526020018781526020018681526020018581526020018473ffffffffffffffffffffffffffffffffffffffff1681526020018381526020013373ffffffffffffffffffffffffffffffffffffffff1681525090806001815401808255809150506001900390600052602060002090600802016000909190919091506000820151816000019081611da7919061365d565b506020820151816001019081611dbd919061365d565b50604082015181600201556060820151816003019081611ddd919061365d565b506080820151816004015560a08201518160050160006101000a81548173ffffffffffffffffffffffffffffffffffffffff021916908373ffffffffffffffffffffffffffffffffffffffff16021790555060c0820151816006015560e08201518160070160006101000a81548173ffffffffffffffffffffffffffffffffffffffff021916908373ffffffffffffffffffffffffffffffffffffffff160217905550505050505050505050565b6060600080600080600d8681548110611ea757611ea661335e565b5b9060005260206000209060060201600001600d8781548110611ecc57611ecb61335e565b5b906000526020600020906006020160010160009054906101000a900473ffffffffffffffffffffffffffffffffffffffff16600d8881548110611f1257611f1161335e565b5b906000526020600020906006020160020154600d8981548110611f3857611f3761335e565b5b906000526020600020906006020160030154600d8a81548110611f5e57611f5d61335e565b5b906000526020600020906006020160050160009054906101000a900460ff16848054611f899061332d565b80601f0160208091040260200160405190810160405280929190818152602001828054611fb59061332d565b80156120025780601f10611fd757610100808354040283529160200191612002565b820191906000526020600020905b815481529060010190602001808311611fe557829003601f168201915b505050505094509450945094509450945091939590929450565b606060018054806020026020016040519081016040528092919081815260200182805480156120a057602002820191906000526020600020905b8160009054906101000a900473ffffffffffffffffffffffffffffffffffffffff1673ffffffffffffffffffffffffffffffffffffffff1681526020019060010190808311612056575b5050505050905090565b600d81815481106120ba57600080fd5b90600052602060002090600602016000915090508060000180546120dd9061332d565b80601f01602080910402602001604051908101604052809291908181526020018280546121099061332d565b80156121565780601f1061212b57610100808354040283529160200191612156565b820191906000526020600020905b81548152906001019060200180831161213957829003601f168201915b5050505050908060010160009054906101000a900473ffffffffffffffffffffffffffffffffffffffff169080600201549080600301549080600401805461219d9061332d565b80601f01602080910402602001604051908101604052809291908181526020018280546121c99061332d565b80156122165780601f106121eb57610100808354040283529160200191612216565b820191906000526020600020905b8154815290600101906020018083116121f957829003601f168201915b5050505050908060050160009054906101000a900460ff16905086565b60075481565b6000600a600081548092919061224e90613836565b91905055506064424433600a5460405160200161226e9493929190613b08565b6040516020818303038152906040528051906020012060001c6122919190613b56565b905090565b606060008060606000806000600c88815481106122b6576122b561335e565b5b9060005260206000209060080201600001600c89815481106122db576122da61335e565b5b906000526020600020906008020160060154600c8a815481106123015761230061335e565b5b906000526020600020906008020160020154600c8b815481106123275761232661335e565b5b9060005260206000209060080201600301600c8c8154811061234c5761234b61335e565b5b906000526020600020906008020160040154600c8d815481106123725761237161335e565b5b906000526020600020906008020160050160009054906101000a900473ffffffffffffffffffffffffffffffffffffffff16600c8e815481106123b8576123b761335e565b5b906000526020600020906008020160070160009054906101000a900473ffffffffffffffffffffffffffffffffffffffff168680546123f69061332d565b80601f01602080910402602001604051908101604052809291908181526020018280546124229061332d565b801561246f5780601f106124445761010080835404028352916020019161246f565b820191906000526020600020905b81548152906001019060200180831161245257829003601f168201915b505050505096508380546124829061332d565b80601f01602080910402602001604051908101604052809291908181526020018280546124ae9061332d565b80156124fb5780601f106124d0576101008083540402835291602001916124fb565b820191906000526020600020905b8154815290600101906020018083116124de57829003601f168201915b505050505093509650965096509650965096509650919395979092949650565b600560205280600052604060002060009150905080600001805461253e9061332d565b80601f016020809104026020016040519081016040528092919081815260200182805461256a9061332d565b80156125b75780601f1061258c576101008083540402835291602001916125b7565b820191906000526020600020905b81548152906001019060200180831161259a57829003601f168201915b5050505050908060010180546125cc9061332d565b80601f01602080910402602001604051908101604052809291908181526020018280546125f89061332d565b80156126455780601f1061261a57610100808354040283529160200191612645565b820191906000526020600020905b81548152906001019060200180831161262857829003601f168201915b5050505050905082565b600c818154811061265f57600080fd5b90600052602060002090600802016000915090508060000180546126829061332d565b80601f01602080910402602001604051908101604052809291908181526020018280546126ae9061332d565b80156126fb5780601f106126d0576101008083540402835291602001916126fb565b820191906000526020600020905b8154815290600101906020018083116126de57829003601f168201915b5050505050908060010180546127109061332d565b80601f016020809104026020016040519081016040528092919081815260200182805461273c9061332d565b80156127895780601f1061275e57610100808354040283529160200191612789565b820191906000526020600020905b81548152906001019060200180831161276c57829003601f168201915b5050505050908060020154908060030180546127a49061332d565b80601f01602080910402602001604051908101604052809291908181526020018280546127d09061332d565b801561281d5780601f106127f25761010080835404028352916020019161281d565b820191906000526020600020905b81548152906001019060200180831161280057829003601f168201915b5050505050908060040154908060050160009054906101000a900473ffffffffffffffffffffffffffffffffffffffff16908060060154908060070160009054906101000a900473ffffffffffffffffffffffffffffffffffffffff16905088565b6001818154811061288f57600080fd5b906000526020600020016000915054906101000a900473ffffffffffffffffffffffffffffffffffffffff1681565b600260008273ffffffffffffffffffffffffffffffffffffffff1673ffffffffffffffffffffffffffffffffffffffff16815260200190815260200160002060009054906101000a900460ff161561294b576040517f08c379a000000000000000000000000000000000000000000000000000000000815260040161294290613bd3565b60405180910390fd5b6001819080600181540180825580915050600190039060005260206000200160009091909190916101000a81548173ffffffffffffffffffffffffffffffffffffffff021916908373ffffffffffffffffffffffffffffffffffffffff1602179055506001600260008373ffffffffffffffffffffffffffffffffffffffff1673ffffffffffffffffffffffffffffffffffffffff16815260200190815260200160002060006101000a81548160ff02191690831515021790555060076000815480929190612a1990613836565b919050555050565b5080546000825590600052602060002090810190612a3f9190612a42565b50565b5b80821115612a5b576000816000905550600101612a43565b5090565b6000604051905090565b600080fd5b600080fd5b600073ffffffffffffffffffffffffffffffffffffffff82169050919050565b6000612a9e82612a73565b9050919050565b612aae81612a93565b8114612ab957600080fd5b50565b600081359050612acb81612aa5565b92915050565b600060208284031215612ae757612ae6612a69565b5b6000612af584828501612abc565b91505092915050565b60008115159050919050565b612b1381612afe565b82525050565b6000602082019050612b2e6000830184612b0a565b92915050565b600081519050919050565b600082825260208201905092915050565b60005b83811015612b6e578082015181840152602081019050612b53565b60008484015250505050565b6000601f19601f8301169050919050565b6000612b9682612b34565b612ba08185612b3f565b9350612bb0818560208601612b50565b612bb981612b7a565b840191505092915050565b612bcd81612a93565b82525050565b6000819050919050565b612be681612bd3565b82525050565b600060a0820190508181036000830152612c068188612b8b565b9050612c156020830187612bc4565b612c226040830186612bdd565b612c2f6060830185612bdd565b612c3c6080830184612b0a565b9695505050505050565b612c4f81612bd3565b8114612c5a57600080fd5b50565b600081359050612c6c81612c46565b92915050565b600060208284031215612c8857612c87612a69565b5b6000612c9684828501612c5d565b91505092915050565b60006040820190508181036000830152612cb98185612b8b565b90508181036020830152612ccd8184612b8b565b90509392505050565b600060c0820190508181036000830152612cf08189612b8b565b9050612cff6020830188612bc4565b612d0c6040830187612bdd565b612d196060830186612bdd565b8181036080830152612d2b8185612b8b565b9050612d3a60a0830184612b0a565b979650505050505050565b600080fd5b600080fd5b7f4e487b7100000000000000000000000000000000000000000000000000000000600052604160045260246000fd5b612d8782612b7a565b810181811067ffffffffffffffff82111715612da657612da5612d4f565b5b80604052505050565b6000612db9612a5f565b9050612dc58282612d7e565b919050565b600067ffffffffffffffff821115612de557612de4612d4f565b5b612dee82612b7a565b9050602081019050919050565b82818337600083830152505050565b6000612e1d612e1884612dca565b612daf565b905082815260208101848484011115612e3957612e38612d4a565b5b612e44848285612dfb565b509392505050565b600082601f830112612e6157612e60612d45565b5b8135612e71848260208601612e0a565b91505092915050565b600080600060608486031215612e9357612e92612a69565b5b6000612ea186828701612abc565b935050602084013567ffffffffffffffff811115612ec257612ec1612a6e565b5b612ece86828701612e4c565b925050604084013567ffffffffffffffff811115612eef57612eee612a6e565b5b612efb86828701612e4c565b9150509250925092565b6000602082019050612f1a6000830184612bdd565b92915050565b6000602082019050612f356000830184612bc4565b92915050565b612f4481612afe565b8114612f4f57600080fd5b50565b600081359050612f6181612f3b565b92915050565b600060208284031215612f7d57612f7c612a69565b5b6000612f8b84828501612f52565b91505092915050565b600060e0820190508181036000830152612fae818a612b8b565b90508181036020830152612fc28189612b8b565b9050612fd16040830188612bdd565b8181036060830152612fe38187612b8b565b9050612ff26080830186612bdd565b612fff60a0830185612bc4565b61300c60c0830184612bc4565b98975050505050505050565b600080600080600080600060e0888a03121561303757613036612a69565b5b600088013567ffffffffffffffff81111561305557613054612a6e565b5b6130618a828b01612e4c565b975050602088013567ffffffffffffffff81111561308257613081612a6e565b5b61308e8a828b01612e4c565b965050604061309f8a828b01612c5d565b955050606088013567ffffffffffffffff8111156130c0576130bf612a6e565b5b6130cc8a828b01612e4c565b94505060806130dd8a828b01612c5d565b93505060a06130ee8a828b01612abc565b92505060c06130ff8a828b01612c5d565b91505092959891949750929550565b600081519050919050565b600082825260208201905092915050565b6000819050602082019050919050565b61314381612a93565b82525050565b6000613155838361313a565b60208301905092915050565b6000602082019050919050565b60006131798261310e565b6131838185613119565b935061318e8361312a565b8060005b838110156131bf5781516131a68882613149565b97506131b183613161565b925050600181019050613192565b5085935050505092915050565b600060208201905081810360008301526131e6818461316e565b905092915050565b600060e0820190508181036000830152613208818a612b8b565b90506132176020830189612bdd565b6132246040830188612bdd565b81810360608301526132368187612b8b565b90506132456080830186612bdd565b61325260a0830185612bc4565b61325f60c0830184612bc4565b98975050505050505050565b6000610100820190508181036000830152613286818b612b8b565b9050818103602083015261329a818a612b8b565b90506132a96040830189612bdd565b81810360608301526132bb8188612b8b565b90506132ca6080830187612bdd565b6132d760a0830186612bc4565b6132e460c0830185612bdd565b6132f160e0830184612bc4565b9998505050505050505050565b7f4e487b7100000000000000000000000000000000000000000000000000000000600052602260045260246000fd5b6000600282049050600182168061334557607f821691505b602082108103613358576133576132fe565b5b50919050565b7f4e487b7100000000000000000000000000000000000000000000000000000000600052603260045260246000fd5b7f4f6e6c79206d656d626572732063616e20706572666f726d207468697320616360008201527f74696f6e00000000000000000000000000000000000000000000000000000000602082015250565b60006133e9602483612b3f565b91506133f48261338d565b604082019050919050565b60006020820190508181036000830152613418816133dc565b9050919050565b7f546865726520697320616c726561647920616e206163746976652070726f706f60008201527f73616c0000000000000000000000000000000000000000000000000000000000602082015250565b600061347b602383612b3f565b91506134868261341f565b604082019050919050565b600060208201905081810360008301526134aa8161346e565b9050919050565b60008190508160005260206000209050919050565b60006020601f8301049050919050565b600082821b905092915050565b6000600883026135137fffffffffffffffffffffffffffffffffffffffffffffffffffffffffffffffff826134d6565b61351d86836134d6565b95508019841693508086168417925050509392505050565b6000819050919050565b600061355a61355561355084612bd3565b613535565b612bd3565b9050919050565b6000819050919050565b6135748361353f565b61358861358082613561565b8484546134e3565b825550505050565b600090565b61359d613590565b6135a881848461356b565b505050565b5b818110156135cc576135c1600082613595565b6001810190506135ae565b5050565b601f821115613611576135e2816134b1565b6135eb846134c6565b810160208510156135fa578190505b61360e613606856134c6565b8301826135ad565b50505b505050565b600082821c905092915050565b600061363460001984600802613616565b1980831691505092915050565b600061364d8383613623565b9150826002028217905092915050565b61366682612b34565b67ffffffffffffffff81111561367f5761367e612d4f565b5b613689825461332d565b6136948282856135d0565b600060209050601f8311600181146136c757600084156136b5578287015190505b6136bf8582613641565b865550613727565b601f1984166136d5866134b1565b60005b828110156136fd578489015182556001820191506020850194506020810190506136d8565b8683101561371a5784890151613716601f891682613623565b8355505b6001600288020188555050505b505050505050565b7f4e6f206163746976652070726f706f73616c0000000000000000000000000000600082015250565b6000613765601283612b3f565b91506137708261372f565b602082019050919050565b6000602082019050818103600083015261379481613758565b9050919050565b7f596f75206861766520616c726561647920766f74656400000000000000000000600082015250565b60006137d1601683612b3f565b91506137dc8261379b565b602082019050919050565b60006020820190508181036000830152613800816137c4565b9050919050565b7f4e487b7100000000000000000000000000000000000000000000000000000000600052601160045260246000fd5b600061384182612bd3565b91507fffffffffffffffffffffffffffffffffffffffffffffffffffffffffffffffff820361387357613872613807565b5b600182019050919050565b600061388982612bd3565b915061389483612bd3565b92508282026138a281612bd3565b915082820484148315176138b9576138b8613807565b5b5092915050565b7f4e487b7100000000000000000000000000000000000000000000000000000000600052601260045260246000fd5b60006138fa82612bd3565b915061390583612bd3565b925082613915576139146138c0565b5b828204905092915050565b60008154905061392f8161332d565b9050919050565b60008190508160005260206000209050919050565b818103613959575050613a31565b61396282613920565b67ffffffffffffffff81111561397b5761397a612d4f565b5b613985825461332d565b6139908282856135d0565b6000601f8311600181146139bf57600084156139ad578287015490505b6139b78582613641565b865550613a2a565b601f1984166139cd87613936565b96506139d8866134b1565b60005b82811015613a00578489015482556001820191506001850194506020810190506139db565b86831015613a1d5784890154613a19601f891682613623565b8355505b6001600288020188555050505b5050505050505b565b7f41646472657373206973206e6f742061206d656d626572000000000000000000600082015250565b6000613a69601783612b3f565b9150613a7482613a33565b602082019050919050565b60006020820190508181036000830152613a9881613a5c565b9050919050565b6000819050919050565b613aba613ab582612bd3565b613a9f565b82525050565b60008160601b9050919050565b6000613ad882613ac0565b9050919050565b6000613aea82613acd565b9050919050565b613b02613afd82612a93565b613adf565b82525050565b6000613b148287613aa9565b602082019150613b248286613aa9565b602082019150613b348285613af1565b601482019150613b448284613aa9565b60208201915081905095945050505050565b6000613b6182612bd3565b9150613b6c83612bd3565b925082613b7c57613b7b6138c0565b5b828206905092915050565b7f4164647265737320697320616c726561647920617661696c61626c6500000000600082015250565b6000613bbd601c83612b3f565b9150613bc882613b87565b602082019050919050565b60006020820190508181036000830152613bec81613bb0565b905091905056fea2646970667358221220898512b5c76ca5547de3d9229ca378f2f1b059ff2ffbbc9a952c176cf3fca80d64736f6c63430008180033",
  "linkReferences": {},
  "deployedLinkReferences": {}
}